:1000000000000120152200003D220000953F000065
:1000100041220000432200004522000000000000B1
:100020000000000000000000000000004722000067
:1000300049220000000000004B2200004D22000079
:10004000412300004F220000D52700004F2200006E
:100050004F2200004F220000092400004F22000020
:100060004F2200004F2200004F2200004F220000CC
:100070004F2200004F2200004F2200004F220000BC
:100080004F2200007D0D00004F2200004F22000093
:10009000A50D00004F220000792B00004F22000028
:1000A0004F2200004F2200004F2200004F2200008C
:1000B0004F220000092600000000000000000000A0
:1000C0004F2200004F2200004F2200004F2200006C
:1000D0004F2200004F2200004F22000000000000CD
:1000E0000000000000000000000000000000000010
:1000F0000000000000000000000000000000000000
:1001000000000000000000000000000000000000EF
:1001100000000000000000000000000000000000DF
:1001200000000000000000000000000000000000CF
:1001300000000000000000000000000000000000BF
:1001400000000000000000000000000000000000AF
:10015000000000000000000000000000000000009F
:10016000000000000000000000000000000000008F
:10017000000000000000000000000000000000007F
:10018000000000000000000000000000000000006F
:10019000000000000000000000000000000000005F
:1001A000000000000000000000000000000000004F
:1001B000000000000000000000000000000000003F
:1001C000000000000000000000000000000000002F
:1001D000000000000000000000000000000000001F
:1001E000000000000000000000000000000000000F
:1001F00000000000000000000000000000000000FF
:1002000010B5054C237833B9044B13B10448AFF350
:1002100000800123237010BD7C000020000000003E
:100220006C6E0000084B10B51BB108490848AFF3CD
:1002300000800848036803B910BD074B002BFBD0B2
:10024000BDE81040184700BF0000000080000020FB
:100250006C6E00007800002000000000154B002BA1
:1002600008BF134B9D46A3F5803A00218B460F46ED
:100270001348144A121A05F062FE0F4B002B00D0EF
:1002800098470E4B002B00D0984700200021040017
:100290000D000D48002802D00C48AFF3008005F097
:1002A0000DFE2000290003F055FF05F0F3FD00BF0F
:1002B0000000080000000120000000000000000015
:1002C0007C000020C80A00200000000000000000A0
:1002D0000B4609B9417101E001214171027101210F
:1002E000994001604FF0A043C3F818151AB1026895
:1002F000C3F80C2504E002684FF0A043C3F80825BA
:1003000000238360704700BF437963B103792BB149
:1003100002684FF0A043C3F80825704702684FF009
:10032000A043C3F80C25704743793BB14FF0A0427E
:10033000D2F8041503684B40C2F80435704700BF7B
:100340004379002B4ED002684FF0A043C3F80C2530
:100350004FF47A7303FB01F100293ED0224B1B6856
:10036000224A00BF00BF00BF00BF00BF00BF00BFE8
:1003700000BF93422FD000BF00BF00BF00BF00BF2F
:1003800000BF00BF00BF00BF00BF00BF00BF00BF75
:1003900000BF00BF00BF00BF00BF00BF00BF00BF65
:1003A00000BF00BF00BF00BF00BF00BF00BF00BF55
:1003B00000BF00BF00BF00BF00BF00BF00BF00BF45
:1003C00000BF00BF00BF00BF00BF00BF00BF00BF35
:1003D00000BF00BF00BF0139C3D102684FF0A04386
:1003E000C3F80825704700BF040000200024F40073
:1003F00030B40170427083704FF0A04203F5E07397
:10040000012142F82310037803F5E073032542F835
:100410002350437803F5E0730C2542F8235082788B
:100420000A4BC3F808250278C3F80C254278C3F8B4
:1004300010254FF08052C3F824250022C3F854251C
:10044000C3F80821C3F8001530BC704700300040E5
:10045000014BC3F82415704700300040FF22074BC2
:10046000C3F81C25054BD3F80831002BFAD0034BF9
:100470000022C3F80821D3F8183570470030004037
:10048000074BC3F81C15064BD3F80831002BFAD0E4
:10049000034B0022C3F80821D3F81805C0B27047F7
:1004A0000030004010B416480023C0F808310B4655
:1004B00013F8024BC0F81C454978013A11D0104896
:1004C000C0F81C15581C19780D4BD3F80831002BB7
:1004D000FAD00B4B0024C3F80841D3F81835034673
:1004E000EBE7074BD3F80831002BFAD0044B00227E
:1004F000C3F80821D3F818355DF8044B704700BFE6
:100500000030004000200C4BC3F80801501E92B18F
:100510000022094BC3F81C25074BD3F80831002BE8
:10052000FAD0054B0022C3F80821D3F8183501F89A
:10053000013B0246EAE770470030004000200C4BC8
:10054000C3F80801501E92B1FF22094BC3F81C25C5
:10055000074BD3F80831002BFAD0054B0022C3F823
:100560000821D3F8183501F8013B0246EAE7704745
:100570000030004030B441600270012303FA02F2FF
:100580004FF0A041C1F80825027802F5E07203257A
:1005900041F8225002789340C1F8083530BC7047CA
:1005A00000B585B00021ADF804100291039001AAB6
:1005B00044F2010000F004F805B05DF804FB00BF50
:1005C000BFF34F8F0549CA6802F4E062044B13433E
:1005D000CB60BFF34F8F00BFFDE700BF00ED00E031
:1005E0000400FA05034BC3F808050022024B83F808
:1005F000112370470010014000E100E010B4114BDE
:100600001C680CB9186019E0026823689A4209D87E
:100610009A1A2260C4610B4B18600FE0521A1C46F4
:10062000DB6900E0234613B119688A42F6D813B19A
:100630001968891A19600260C361E0615DF8044BB2
:10064000704700BF9C000020364B19680B460A46D5
:1006500003E0834203D01A46DB69002BF9D1002B5B
:100660005CD030B49A424CD1C8692E4C206000282E
:1006700047D101202C4CA06000252C4C25602C4C2F
:1006800020702C4804682F202B4D00BF00BF00BFF6
:1006900000BF00BF00BF00BF00BFAC422FD000BFF3
:1006A00000BF00BF00BF00BF00BF00BF00BF00BF52
:1006B00000BF00BF00BF00BF00BF00BF00BF00BF42
:1006C00000BF00BF00BF00BF00BF00BF00BF00BF32
:1006D00000BF00BF00BF00BF00BF00BF00BF00BF22
:1006E00000BF00BF00BF00BF00BF00BF00BF00BF12
:1006F00000BF00BF00BF00BF00BF00BF00BF013888
:10070000C3D11868DB69D36113B11A68104418604B
:10071000044B1868081A18BF012001E00020704738
:1007200030BC70479C000020001001409800002061
:10073000A2000020040000200024F4004FF4003246
:10074000014BC3F80021704700E100E04FF4801234
:10075000014BC3F80021704700E100E008B5436990
:100760008069984708BD00BF1A4B1868002830D030
:1007700070B5194BD3F80435184A14681C1B24F0C3
:100780007F4400250CE003689C420BD3E41A1D440F
:10079000C669037C1BB100230374FFF7DFFF3046FB
:1007A0000028F0D10E4B1A780E4B1B789A4208D1D4
:1007B0000133DBB20B4A1370022B02D10022094B2A
:1007C0001A70084B1A78084B43F82250FFF7BEFF07
:1007D00070BD70479C000020001001409800002070
:1007E000A0000020A1000020B0010020104B1B78C9
:1007F000104A1278934216D00133DBB20C4A1370C0
:10080000022B02D100220A4B1A70094B1A780A4BAC
:1008100053F822100160094A13680B4423F07F4308
:10082000136001207047002303601846704700BF23
:10083000A0000020A1000020B001002098000020AE
:1008400070B4002516E01C68A04202D2241A1C6075
:1008500014E0001B254400241C60DE69084C26605F
:10086000DC683CB16E1826F07F465E609C601468C0
:10087000DC611360024B1B68002BE4D170BC704735
:100880009C000020F8B505463F4B1F68002669E034
:1008900015B12C46ED6944E03C4A11784B1CDBB2A3
:1008A00013709278934202D10022384B1A704A009A
:1008B0000A44D300354A13449C681B79022B04D0A8
:1008C000032B0FD0012B4DD111E02046FFF7BCFECA
:1008D00000B101260023237444E000221A74DA696F
:1008E000294B1A60284B1B68002BF6D13AE0237C79
:1008F000002B37D1254A4FEA410E0EEB0100C30011
:100900001344D86860601869A0605B69E360714453
:10091000CB0013449B69A3611D4B1B780BB10023D3
:10092000636061681B4B1B68CA1A22F07F421A4839
:10093000824203D8A3681A4422600AE05B1A23F0BB
:100940007F43A2689A4202D9D31A236001E00023B0
:10095000236000236360A36001222274E3612046C8
:10096000FFF74CFE002D93D1084B1A785B789A4222
:100970008ED12EB9044B1B689F4203D00120F8BDD5
:100980000120F8BD0020F8BD9C000020A40000203C
:10099000A200002098000020FEFF7F00014B58704D
:1009A000704700BFA40000200B4A53780133DBB22C
:1009B0009278934200D10023074A1278934208D0DC
:1009C00003700548427802EB4202D3001844043019
:1009D00070470020704700BFA4000020F0B583B02E
:1009E00007460E4615461C46002000F055FA0DF14C
:1009F0000700FFF7D9FF78B10122027047600B4A68
:100A0000D2F804258260C660056144619DF8070044
:100A1000FFF7C4FF002400E00424002000F040FAA7
:100A20000CB9FFF793FE204603B0F0BD0010014063
:100A3000284B4FF48032C3F84423C3F80423264ADA
:100A40004FF40031C2F88011116001221A60234B6B
:100A500019682F23224800BF00BF00BF00BF00BF9E
:100A600000BF00BF00BF81422FD000BF00BF00BF4A
:100A700000BF00BF00BF00BF00BF00BF00BF00BF7E
:100A800000BF00BF00BF00BF00BF00BF00BF00BF6E
:100A900000BF00BF00BF00BF00BF00BF00BF00BF5E
:100AA00000BF00BF00BF00BF00BF00BF00BF00BF4E
:100AB00000BF00BF00BF00BF00BF00BF00BF00BF3E
:100AC00000BF00BF00BF00BF00BF013BC3D1054B4B
:100AD0001A7070470010014000E100E0040000209F
:100AE0000024F400B801002070B44FF400324A4BE7
:100AF000C3F8802002F18042A2F570424FF48033A7
:100B0000C2F84833C2F808330124546043480668E9
:100B100043492F231D4600BF00BF00BF00BF00BFD9
:100B200000BF00BF00BF8E422FD000BF00BF00BF7C
:100B300000BF00BF00BF00BF00BF00BF00BF00BFBD
:100B400000BF00BF00BF00BF00BF00BF00BF00BFAD
:100B500000BF00BF00BF00BF00BF00BF00BF00BF9D
:100B600000BF00BF00BF00BF00BF00BF00BF00BF8D
:100B700000BF00BF00BF00BF00BF00BF00BF00BF7D
:100B800000BF00BF00BF00BF00BF013DC3D19460E4
:100B90000022244C2260006800BF00BF00BF00BFDD
:100BA00000BF00BF00BF00BF88422FD000BF00BF02
:100BB00000BF00BF00BF00BF00BF00BF00BF00BF3D
:100BC00000BF00BF00BF00BF00BF00BF00BF00BF2D
:100BD00000BF00BF00BF00BF00BF00BF00BF00BF1D
:100BE00000BF00BF00BF00BF00BF00BF00BF00BF0D
:100BF00000BF00BF00BF00BF00BF00BF00BF00BFFD
:100C000000BF00BF00BF00BF00BF00BF013BC3D19A
:100C1000054B1A7070BC704700E100E00400002032
:100C20000024F40098000020B8010020F8B5394BEA
:100C30001B68002B6AD01F68374BD3F80455374B1D
:100C40001C682B1B23F07F43DE1C354B1B780BB934
:100C5000FFF7EEFEB7422CBFE319A31923F07F4440
:100C60002D4BC3F84045D3F804355B1B23F07F437D
:100C70000333641B24F07F44A34249D9264BD3F8A5
:100C80000425C3F84025274B1A682F23264900BFA7
:100C900000BF00BF00BF00BF00BF00BF00BF8A424F
:100CA0002FD000BF00BF00BF00BF00BF00BF00BF0C
:100CB00000BF00BF00BF00BF00BF00BF00BF00BF3C
:100CC00000BF00BF00BF00BF00BF00BF00BF00BF2C
:100CD00000BF00BF00BF00BF00BF00BF00BF00BF1C
:100CE00000BF00BF00BF00BF00BF00BF00BF00BF0C
:100CF00000BF00BF00BF00BF00BF00BF00BF00BFFC
:100D000000BF013BC3D1FFF719FDF8BDFFF7ECFEB3
:100D1000F8BD00BF9C00002000100140980000209A
:100D2000B8010020040000200024F40030B583B096
:100D3000002301930E4B1C680E4B1D686846FFF79D
:100D400055FD30B101AA21460098FFF779FD012435
:100D500000E000240198FFF795FD00B1012414B1D3
:100D60002846FFF763FF0022034B1A7003B030BD23
:100D7000980000209C000020A200002008B5084B2D
:100D80000022C3F84021C3F84421C3F84821C3F826
:100D90004C21C3F80021C3F80421FFF7E5FC08BD8E
:100DA0000010014008B5FFF7C1FF08BD10B5FFF7FF
:100DB0009BFE0F4B00241C705C700B229A700D4B35
:100DC0001C600D4B1C700D4B1C700D4B4FF48012B2
:100DD000C3F8802183F814431A602046FFF702FC11
:100DE000084BD3F80425084B1A60204610BD00BFFD
:100DF000A40000209C000020A0000020A1000020F2
:100E000000E100E00010014098000020094B9B78B1
:100E100043B14AB150B10368187C48B91874597489
:100E20005A617047082070470720704707207047B5
:100E300008207047A400002010B50D4CA4787CB1A8
:100E400080B1042910D9436983B1437C012B01D0BF
:100E5000002400E00C4613462246FFF7BFFD10BDFC
:100E6000082010BD082010BD072010BD082010BDAF
:100E7000A400002072B6024A136801331360704761
:100E8000BC010020034A1368013B136003B962B63A
:100E9000704700BFBC01002008B5FFF7EBFF08BD9D
:100EA00008B5FFF7EFFF08BD014B1878704700BF8A
:100EB0000000002008B502F0FDFF054B186018B1D6
:100EC00002F0FEFF034B1870024B187808BD00BFFC
:100ED000C00100200000002010B5044C24681CB1A3
:100EE000DBB2204602F0F0FF10BD00BFC0010020C1
:100EF00004207047042070474278007840EA0220BE
:100F0000704700BFC278837843EA0222437843EAFD
:100F10000223007840EA0320704700BF0170090AED
:100F2000417070470170C1F307234370C1F3074359
:100F30008370090EC170704713462AB10A78027097
:100F400001300131013BF9D1704700BF0170013020
:100F5000013AFBD1704700BF30B4451C03780878D4
:100F60001B1A013A04D04C1C28462146002BF4D011
:100F7000184630BC704700BF00E0013090F90030E7
:100F80000BB18B42F9D11846704700BF0239436953
:100F9000023B994204D24389806A01FB03007047F7
:100FA0000020704770B506460D4601F11A00FFF7A4
:100FB000A3FF04463378032B05D105F11400FFF796
:100FC0009BFF44EA004070BD70B506460C461546CE
:100FD00091B204F11A00FFF7A1FF3378032B04D17B
:100FE000290C04F11400FFF799FF70BD00234B7228
:100FF00083696BB370B50024234612E0C5695A1C9F
:10100000EB56202B0CD0052B01D16FF01A03092AC7
:1010100003D10D192E266E7201340D196B72013435
:1010200013460A2BEAD90E4605460C440023637288
:10103000C369DB7A0B72C0691C30FFF763FF306055
:10104000E8691630FFF75EFFF080000CB08070BDDD
:10105000704700BF2DE9F84F824689460F6800F1BE
:10106000200B0B2220215846FFF770FF0026334645
:101070004FF0080800E02B465D1CFB56DCB2202C2C
:101080002DD92F2C03D05C2C07D100E001357B57E4
:101090002F2BFBD05C2BF9D021E02E2C01D0B045BA
:1010A00008D8B8F10B0F2FD02E2C30D108264FF0D6
:1010B0000B08E0E7002B02DA803C194B1C5D21464F
:1010C0001848FFF759FF28BBA4F16103DBB2192BC5
:1010D00001D8203CE4B20BF806400136CBE73D4492
:1010E000C9F80050CEB19AF82030E52B02D1052383
:1010F0008AF82030202C01D8042300E000238AF84D
:101100002B300020BDE8F88F0620BDE8F88F0620C0
:10111000BDE8F88F0620BDE8F88F0620BDE8F88FFF
:10112000B06100003062000010B4046824B94FF0D0
:10113000FF3321E0013200E0224692F90030D9B2BB
:10114000202901D93A2BF5D13A2B0BD1611C94F906
:101150000030303B092B07D88A4208D153B90132FD
:10116000026009E0002307E04FF0FF3304E04FF096
:10117000FF3301E04FF0FF3318465DF8044B704732
:1011800038B50C4670B1054603685BB11A784AB1B0
:10119000D9888288914205D15878FFF785FE10F0F2
:1011A000010F03D000232360092038BD2B68236082
:1011B000002038BDF8B5C37803B30446C66A00F111
:1011C00030070123324639464078FFF791FEB8B91F
:1011D0000023E370236AF31AA269934212D2A5781E
:1011E00008E0A3691E440123324639466078FFF7C0
:1011F0007FFE013D012DF4D80020F8BD0020F8BD90
:101200000120F8BD0020F8BD70B5C36A8B4212D032
:1012100004460D46FFF7CEFF064668B901232A466D
:1012200004F130016078FFF757FE10B101264FF04E
:10123000FF35E56200E00026304670BD10B504467B
:101240000023C3704FF0FF33C362FFF7DDFF18BB0D
:1012500004F22E20FFF750FE4AF6552398421DD186
:1012600094F83030E92B05D0236B03F0FF130F4ABD
:10127000934215D104F16600FFF744FE20F07F4051
:101280000B4B98420ED004F18200FFF73BFE094B56
:10129000984209D1002010BD042010BD032010BDCC
:1012A000022010BD002010BD022010BDEB009000F8
:1012B00046415400464154332DE9F04784B00E4670
:1012C000174600230B60FFF72FFF051EC0F22C818D
:1012D000AA4B53F82540002C00F02881346007F019
:1012E000FE07237873B16078FFF7DEFD10F0010F81
:1012F00008D1002F00F01C8110F0040F40F01A817B
:10130000002038E100232370E8B26070FFF7D2FDBF
:1013100010F0010F40F010811FB110F0040F40F0E9
:101320000D8100212046FFF789FF022815D00026F5
:1013300028E004F130002B0103F5DF731844037932
:101340001BB10830FFF7DEFD00E0002004AB03EB2B
:10135000850343F8100C013500E00025032DE8D982
:10136000002504AB03EB850353F8106C26B131461E
:101370002046FFF763FF00E00320012802D9013572
:10138000032DEED9042800F0DB80012800F2DA807A
:1013900004F13B00FFF7B0FDB0F5007F40F0D480D2
:1013A00004F14600FFF7A8FD804620B904F154007F
:1013B000FFF7A8FD8046C4F8188094F8409084F8A0
:1013C000029009F1FF33DBB2012B00F2BF8008FB72
:1013D00009F994F83D506581002D00F0B9806B1E2D
:1013E0001D4240F0B78004F14100FFF785FD8246C1
:1013F000208110F00F0F40F0AF8004F14300FFF7A1
:101400007BFD074620B904F15000FFF77BFD07463E
:1014100004F13E00FFF770FD0346002800F09E80B7
:1014200009EB000202EB1A129742C0F09980BF1A32
:10143000B7FBF5F5002D00F095804FF6F5718D4264
:1014400001D9032700E0022740F6F5718D4200D84C
:10145000012702356561E661334423623244A262AA
:10146000032F0FD104F15A00FFF746FD00287BD16E
:10147000BAF1000F7AD104F15C00FFF743FD60621E
:10148000AD000EE0BAF1000F72D04B446362022F40
:1014900001D16D0005E005EB450305F0010505EB05
:1014A000530505F2FF15B8EB552F63D34FF0FF330B
:1014B0002361E36080232371032F2CD104F16000AA
:1014C000FFF71AFD012826D1711C2046FFF79CFE6C
:1014D00008BB0023237104F22E20FFF70DFD4AF60E
:1014E0005523984217D104F13000FFF70BFD244B30
:1014F000984210D104F50570FFF704FD214B984286
:1015000009D104F50670FFF7FDFC206104F50770B2
:10151000FFF7F8FCE06027701B4A138801339BB289
:101520001380E380002026E00B2024E00C2022E042
:10153000002020E00A201EE003201CE00A201AE020
:10154000012018E00D2016E00D2014E00D2012E01F
:101550000D2010E00D200EE00D200CE00D200AE023
:101560000D2008E00D2006E00D2004E00D2002E033
:101570000D2000E00D2004B0BDE8F087C801002078
:101580005252614172724161C40100202DE9F0475D
:10159000012977D94369994276D217460C46064607
:1015A0000378022B40D0032B51D0012B6ED101EBDD
:1015B0005108016A01EB5821FFF726FE0546002875
:1015C00065D106F1300A08F10109C8F3080814F0E2
:1015D000010409D01AF808203B0103F47F6302F0EC
:1015E0000F021343DBB200E0FBB20AF8083001231C
:1015F000F370316A01EB59213046FFF705FE0546CD
:10160000002844D1C9F3080914B1C7F3071206E052
:101610001AF8093023F00F03C7F303221A430AF81C
:1016200009200123F37032E0016A01EB1421FFF776
:10163000EBFD054658BB06F13000630003F4FF7371
:10164000B9B21844FFF76AFC0123F3701FE0016A86
:1016500001EBD411FFF7D8FD0546C0B927F070475C
:1016600006F13003A10001F4FE715C182046FFF77B
:1016700049FC00F0704139432046FFF753FC012339
:10168000F37004E0022502E0022500E0022528466E
:10169000BDE8F087F8B50668012953D97369994206
:1016A00052D20C463378022B2AD0032B38D0012B90
:1016B0004CD101EB5105316A01EB55213046FFF762
:1016C000A3FD002844D16F1CC5F30805354495F8E7
:1016D0003050316A01EB57213046FFF795FD002865
:1016E00039D1C7F30803334493F8300045EA0020AA
:1016F00014F0010F01D00009F8BDC0F30B00F8BDD4
:10170000316A01EB14213046FFF77EFD30BB06F154
:101710003000610001F4FF710844FFF7EDFBF8BDF4
:10172000316A01EBD4113046FFF76EFDC8B906F1FE
:101730003003A10001F4FE701844FFF7E3FB20F032
:101740007040F8BD0120F8BD0120F8BD0120F8BDB2
:101750004FF0FF30F8BD4FF0FF30F8BD4FF0FF30D5
:10176000F8BD4FF0FF30F8BD2DE9F0410768B1F545
:10177000001F3DD206460C4611F01F0F3BD13161D0
:1017800085681DB93B78022B00D97D6A35B93B8944
:10179000B3EB541F32D97B6AB3611AE0B7F80A8001
:1017A0004FEA48280EE029463046FFF773FF05460A
:1017B000B0F1FF3F25D0012826D97B69984226D277
:1017C000C8EB04044445EED229463846FFF7DEFB59
:1017D000B0617561B369EBB103EB5423B36107F1F9
:1017E0003003C4F308042344F3610020BDE8F08112
:1017F0000220BDE8F0810220BDE8F0810220BDE8B2
:10180000F0810120BDE8F0810220BDE8F0810220D6
:10181000BDE8F0810220BDE8F08100BF2DE9F04174
:1018200007460668884629B9F5687DB173699D4207
:101830000ED20EE0FFF72EFF012846D9B0F1FF3F90
:1018400051D0736998424ED3454602E0012500E02D
:1018500001252C46013473699C4202D3012D37D9EE
:10186000022421463846FFF715FF38B1012832D04F
:10187000B0F1FF3F31D0AC42ECD130E04FF0FF325D
:1018800021463046FFF782FE034640B9B8F1000F0B
:1018900005D0224641463046FFF778FE034673B92D
:1018A000F46033697269023A934201D2013B3361B9
:1018B000337943F0010333712046BDE8F081012BF9
:1018C00010D14FF0FF30BDE8F0810120BDE8F0817C
:1018D0000020BDE8F081BDE8F081BDE8F081002086
:1018E000BDE8F0810120BDE8F08100BFF8B50E46EB
:1018F000046801292CD90746114663699E4229D202
:101900002AB14FF0FF322046FFF740FE20BB3146A0
:101910003846FFF7BFFE0546F8B101281FD0B0F1E9
:10192000FF3F1ED0002231462046FFF72FFED0B9E0
:1019300023696269911E8B4205D2013323612379A9
:1019400043F0010323712E469542E0D30020F8BDF9
:101950000220F8BD0220F8BDF8BD0020F8BD02202D
:10196000F8BD0120F8BDF8BD2DE9F843066803690C
:1019700003F120058369002B6DD0B5F5001F6DD2F2
:1019800088460446C5F30807002F5DD10133836103
:10199000416941B93389B3EB551F55D800238361A1
:1019A0000420BDE8F8837389013B13EA55234BD12A
:1019B000FFF770FE8146012853D9B0F1FF3F53D0A5
:1019C0007369984239D3B8F1000F04D10023A361A1
:1019D0000420BDE8F88361692046FFF71FFF8146B8
:1019E000002844D0012845D0B0F1FF3F45D0304613
:1019F000FFF7E0FB002843D14FF40072002106F10D
:101A00003000FFF7A3FA49463046FFF7BFFAF0620D
:101A10004FF000080AE00123F3703046FFF7CAFBDD
:101A200088BB08F10108F36A0133F36273899845B2
:101A3000F1D3F36AC8EB0303F362C4F81490494688
:101A40003046FFF7A3FAA061256130363E44E661D7
:101A50000020BDE8F8830420BDE8F8830420BDE839
:101A6000F8830220BDE8F8830120BDE8F883072051
:101A7000BDE8F8830220BDE8F8830120BDE8F883C3
:101A80000120BDE8F8830120BDE8F88370B5044665
:101A900006680021FFF768FEE8B9A1693046FFF744
:101AA000B3FB0546C0B9E0690378B3B1C37A03F06C
:101AB0003F03A371C37A13F0080F05D10B2204F181
:101AC0002001FFF749FA50B100212046FFF74CFFF3
:101AD0000028E2D070BD70BD70BD042070BD2846E6
:101AE00070BD00BF30B583B004460191056801E0C8
:101AF00001330193019B93F900202F2AF8D05C2A2F
:101B0000F6D00022A2601B781F2B08D8802384F80F
:101B10002B3011462046FFF727FE034627E001A998
:101B20002046FFF797FA034608BB2046FFF7AEFFB3
:101B300094F82B20034628B1042818D112F0040F82
:101B400012D014E012F0040F11D1A37913F0100F8A
:101B50000CD005F130012369C3F30803194428466A
:101B6000FFF720FAA060DAE7052300E00523184616
:101B700003B030BDF8B504460F4606680021FFF7F4
:101B8000F3FD0246B8B90025A1693046FFF73CFBDA
:101B9000024680B9E3691B78E52B00D01BB90135FB
:101BA000BD4201D107E0002501212046FFF7DCFE00
:101BB00002460028E8D0042A00D107221046F8BDCA
:101BC00070B5044606680121FFF7D4FF054690B9B9
:101BD000A1693046FFF718FB054660B920220021B5
:101BE000E069FFF7B3F90B2204F12001E069FFF788
:101BF000A3F90123F370284670BD00BFF8B5044671
:101C00000E46056804271FE02846FFF7FDFA074641
:101C1000F8B9E3691A78DAB1DB7A03F03F03A3710C
:101C2000E52A0BD02E2A09D00F2B07D023F0200352
:101C3000082B14BF00230123B3420AD00021204601
:101C4000FFF792FE074620B9A1690029DCD100E028
:101C500004270FB10023A3613846F8BD70B50446D0
:101C6000FFF7A8FA0546002837D12378032B2DD19A
:101C70002379012B2AD104F130064FF400720021A0
:101C80003046FFF763F94AF6552104F22E20FFF79C
:101C900045F913493046FFF745F9124904F5057037
:101CA000FFF740F9216904F50670FFF73BF9E16899
:101CB00004F50770FFF736F9E2690132E2620123A9
:101CC00031466078FFF714F9002323710022114692
:101CD0006078FFF70FF900B10125284670BD00BFFD
:101CE000525261417272416110B584B0019000910D
:101CF000144604A840F8041DFFF716FA002816DB66
:101D00000E4B53F820300BB100221A70019B0BB11F
:101D100000221A70019B094A42F820304BB1012C75
:101D200009D1002201A96846FFF7C6FA04E00B209A
:101D300002E0002000E0002004B010BDC801002037
:101D40002DE9F0438FB00191002800F0E0800546B6
:101D5000164602F03F073A4602A901A8FFF7ACFA7F
:101D60000446002840F0CE80029B0393019903A80B
:101D7000FFF7B8FE044620B99DF93730002B00DA92
:101D8000062416F01C0F53D044B1042C03D103A831
:101D9000FFF716FF044647F008070BE09DF81230E6
:101DA00013F0110F03D116F0040F02D102E0072443
:101DB00000E00824002C4BD117F0080F48D0574EF4
:101DC00031460A980E30FFF7ADF831460A981630C2
:101DD000FFF7A8F820220A9BDA72029EDDF828801D
:101DE00041463046FFF7DEF8814600224146304644
:101DF000FFF7EAF800210A981C30FFF793F8012258
:101E0000029BDA70B9F1000F22D0029BDE6A002239
:101E1000494603A8FFF76AFD0446C8B9314602984F
:101E2000FFF7F2F9044609F1FF33029AD3600FE09D
:101E300074B99DF8123013F0100F06D116F0020F8E
:101E400006D013F0010F02D102E0042400E00724C1
:101E50004CB917F0080F01D047F04007029BDB6A2E
:101E60002B620A9B6B62002C4CD1029EDDF828800D
:101E700041463046FFF796F8A86008F11C00FFF7CE
:101E800041F8E8602E60F388AB802F7400216974FC
:101E9000E961696105F128084FF400724046FFF7D7
:101EA00055F817F0200F2DD0EE685EB36E61029BDF
:101EB0005F897F02A9680BE02846FFF7EBFB01462C
:101EC000012800D80224B1F1FF3F00D10124F61B04
:101ED0000CB9BE42F0D8A961A4B9C6F308038BB10E
:101EE000029F3846FFF752F848B100EB5622EA61EC
:101EF000012341467878FEF7EFFF10B902E0022493
:101F000000E001242CB100232B60204602E00920D0
:101F100000E020460FB0BDE8F08300BF000021487C
:101F20002DE9F04F85B00446884615461F4600232C
:101F30003B60019003A9FFF723F9002840F0A5803A
:101F4000607C002840F0A380237C13F0010F00F098
:101F50009D80E6686369F61AAE42C0F091802E4615
:101F60008EE06369C3F30802002A72D1039AB2F8C3
:101F70000A9009F1FF3919EA532912D10BB9A06867
:101F800003E0A1690198FFF785FB012802D8022030
:101F900060747CE0B0F1FF3F02D10120607476E014
:101FA000A061DDF80CB0A1695846FEF7EFFF82464C
:101FB00010B9022060746AE0CA44750A25D009EBA2
:101FC0000503BBF80A20934201D9C9EB02052B4651
:101FD000524641469BF80100FEF77EFF10B10120FA
:101FE000607454E094F91030002B0CDAE069CAEB0D
:101FF0000000854207D94FF4007204F1280108EB74
:102000004020FEF799FF6D0232E0E26992451ED052
:1020100094F91030002B0EDA012304F128019BF80B
:102020000100FEF765FF10B1012060742FE0237CF2
:1020300003F07F0323740123524604F1280103981F
:102040004078FEF749FF10B1012060741FE0C4F82A
:102050001CA06369C3F30803C3F50075AE4200D248
:10206000354604F128012A4619444046FEF764FF2C
:10207000A84463692B4463613B682B443B60761B37
:10208000002E7FF46EAF002001E000E0072005B0D5
:10209000BDE8F08F30B583B0044601A9FFF770F8B2
:1020A00000283CD1227C12F0400F39D012F0800F72
:1020B0000CD00123E26904F1280101984078FEF771
:1020C00017FF70BB237C03F07F032374216A019800
:1020D000FFF79AF838BB656AEB7A43F02003EB729E
:1020E000A26829462068FEF76FFFE16805F11C0031
:1020F000FEF718FF0D4905F11600FEF713FF00214A
:1021000005F11200FEF70AFF0122019BDA70019827
:10211000FFF7A4FD237C23F04003237403E002E0D7
:1021200001E00120FFE703B030BD00BF00002148FF
:1021300010B582B00446FFF7ADFF034638B901A9D8
:102140002046FFF71DF8034608B900222260184612
:1021500002B010BD30B585B0019178B305460022BC
:1021600003A901A8FFF7A8F8044610BB039B2B6046
:1021700001992846FFF7B6FC0446B8B995F92B300B
:10218000002B0ADBAB7913F0100F05D0E969039837
:10219000FEF708FFA86000E005243CB9039BDB883C
:1021A000AB8000212846FFF7DFFA0446042C00D15B
:1021B00005242CB100232B60204602E0092000E01A
:1021C000204605B030BD00BF70B582B005460E4652
:1021D00001A9FEF7D5FF0446C8B92EB9002128464B
:1021E000FFF7C2FA044612E000212846FFF706FD79
:1021F000042800D0044654B931462846FEF7F6FEBE
:1022000000212846FFF7B0FB042800D004462046F2
:1022100002B070BD0649074A074B9B1A03DD043B19
:10222000C858D050FBDC00F0EBFDFEF717F80000BB
:10223000786E0000000000207C000020FEE7FEE732
:10224000FEE7FEE7FEE7FEE7FEE7FEE7FEE7FEE766
:1022500082B0084B00221A601B680193019B022286
:102260004FF08043C3F80423012208331A6002B000
:10227000704700BF040100400268134602E08B4231
:1022800004D01B68002BFAD10A600160704700BFC0
:1022900003680BB11A6802601846704708B50E4B08
:1022A0001B78BBB90C4B00229A605A601A61DA6045
:1022B0000A4B1B6813F0010F03D10721104600F0F1
:1022C0007FF801234FF08042C2F81835024A13709C
:1022D000002008BD852008BDCC01002000E100E001
:1022E00010B50446144B9B7813F0FF0F0ED010B1BD
:1022F0004368012098470020FEF7CEFD0E4AD368C0
:102300000133D3600020FEF7CBFD10BD0020FEF7A7
:10231000C3FD1CB121460948FFF7AEFF064BDB6841
:102320000BB9FFF795FF044AD3680133D36000204F
:10233000FEF7B6FD10BD00BFCC010020DC0100207F
:1023400000B583B0194B1B68A3B1184B00221A606B
:102350001B680093009B01234FF08042C2F80833B2
:10236000134A53701348FFF793FF18B143680020D6
:102370009847F7E7104B1B68ABB10F4B00221A6070
:102380001B680193019B02224FF08043C3F808238E
:102390000122074B9A700948FFF77AFF18B143688A
:1023A00001209847F7E703B05DF804FB0001004007
:1023B000CC010020D401002004010040DC010020F9
:1023C000002806DA00F00F024901C9B20C4B9954FB
:1023D00007E04901C9B200F1604303F5614383F8A6
:1023E0000013420900F01F00012303FA00F0054B1F
:1023F00002F1600143F8210043F82200704700BF5A
:1024000014ED00E000E100E0F0B587B0002505958F
:1024100001204FF48073294615E003F1804202F554
:10242000C0421468012C0AD1744CD4F804432042F1
:1024300005D00024146012680392039A05434000FB
:1024400004339BB201310729E7D96D4B1B68012B7F
:1024500012D16B4A0023136012680492049A45F06B
:10246000004505AA06E04FF0A041D1F8101542F84A
:10247000041B0133002BF6D015F0FF0F15D118E027
:1024800035420FD05D4B04F5A27253F82200C0F321
:10249000042053F82210C1F301415A4B53F8243061
:1024A00003B198477600013401E001260024072C8F
:1024B000E6D9002D80F29F800023009307E006AA52
:1024C00002EB83024FF0FF3142F8141C0133002B62
:1024D000F5D00024254658E04A4B2B4493F944306C
:1024E000D9B221F0C000B3F1FF3F4DD0C20801F0D6
:1024F0000703012606FA03F306AE164416F8146C19
:102500001E4241D089093F4E371897F9247056F87A
:1025100027600EB9032937D1032904D11DF80270B1
:102520001F430DF8027000F5E0774FF0A04E5EF803
:102530002770C7F301470DF1180E724412F8042CEE
:10254000134001D0022F02D0F3B9032F1CD103296D
:1025500018D1022F02D14FF0030E01E04FF0020E0E
:102560004FF0A04300F5E07253F8227027F4403793
:1025700043F8227053F8227047EA0E4743F822705E
:102580000134E4B206B1B0470135002DA4D044B9FE
:102590002EE04FF0A041D1F8101542F8041B013392
:1025A00001E0002302AA002BF3D0002309E006AAD1
:1025B00002EB830252F8101C52F8042C914204D111
:1025C0000133002BF3D0012300E000237BB90BE0A3
:1025D00006AA02EB830252F8101C42F8041C52F8BF
:1025E000181C42F8141C0133002BF1D000E0002429
:1025F000002C7FF46EAF07B0F0BD00BF006000405C
:102600007C610040E001002000B585B0274B1B68CD
:10261000BBB1264B00221A601B680193019B244B1F
:10262000D3F86035234AD068984205D113465268E2
:1026300019891869904735E01E4B5A6819899047E7
:1026400030E01D4B1B68FBB11B4B00221A601B685E
:102650000293029B174B01225A70154AD2F860254B
:10266000DB68934208D1134B19691A89104BC3F8E0
:102670006015C3F8642515E00E4A11890C4AC2F8AA
:102680006035C2F864150DE00C4B1B6853B10B4A62
:102690000023136012680392039A054AC2F80035BA
:1026A000044A537005B05DF804FB00BF08D1014037
:1026B00000D001402802002000D1014004D1014097
:1026C000314B1B78002B52D1002852D0002952D018
:1026D000037A502B51D8437A502B50D88389B3F5C5
:1026E000004F4ED870B50669274DEE6042692A61E9
:1026F0002B81696000246C70244AC2F86065C2F8BE
:1027000064354368C2F804350178437801F001016B
:102710005B0003F002030B43C2F80835017A437AE9
:10272000C2F81815C2F81C3581784FF0A04301F5A6
:10273000E071032643F821608178012606FA01F151
:10274000C3F80C15C17801F5E07143F82140817898
:10275000C378C2F84015C2F844352E700723C2F87A
:102760000433817A1D20FFF72BFE204670BD082020
:1027700070470720704707207047072070470720E1
:1027800070470720704700BF2802002000D001409A
:102790000D4B5B781BB1012B12D10020704782B02A
:1027A000094B02225A701A70084B0122C3F8002507
:1027B0000749002008600968019101991A6001E049
:1027C0001120704702B070472802002000D001405D
:1027D00000D1014010B58EB0914B1B7F002B00F053
:1027E000A380904BD3F82431EBB18E4B0022C3F879
:1027F0002421D3F824110291029902218DF8281086
:10280000D3F88014C3F880140D91D3F83C358DF8BB
:102810003030834BD9680B91DA751A765A6819688B
:102820000AA890473EE07F4BD3F81031002B39D0F7
:102830007C4B0022C3F81021D3F810210392039A95
:10284000D3F83C35DBB2764AD27D93422AD1744A22
:10285000127ECAB1724AD4687248D0F8001221F0D0
:102860002001C0F80012117ED1751169D1600021DC
:10287000117601218DF828108DF830300B945368B3
:1028800011680AA898470DE0654A0021D175D16802
:1028900001208DF828008DF830300B9153681168B5
:1028A0000AA898475F4BD3F84431D3B15D4B00225F
:1028B000C3F84421D3F844310193019B584BDB7D8D
:1028C0007BB1574BDA75574AD2F83C15DA680120CC
:1028D0008DF828008DF830100B925A6819680AA8F4
:1028E0009047504BD3F82031002B00F012814D4B14
:1028F0000022C3F82021D3F820310093009B484BDD
:102900009B7D002B00F00581464BD3F84C358DF8AC
:1029100028208DF83030424B99680B919A755A688F
:1029200019680AA89047F4E03E4BD3F8043313F437
:10293000007F2CD03B4BD3F8243143B3394B0022DA
:10294000C3F82421D3F824210992099A4FF4017283
:10295000C3F80823324B9B7E13B90122314B5A60D6
:1029600002238DF828302F4AD2F88034C2F8803400
:102970000D932B4BDA7D8DF83020DA680B92002214
:10298000DA751A765A6819680AA8904766E0254BE6
:10299000D3F8043313F0040F60D0224BD3F808317E
:1029A000002B5BD01E4BDB7D53B91E4B0022C3F8BE
:1029B0000821D3F808210892089AD3F8183512E0B4
:1029C00018490023C1F80831D1F808310793079B53
:1029D000134AD068537EDBB2D1F81815C154537E28
:1029E0000133DBB253760E4BDA7D5B7EDBB29A426B
:1029F00034D10B4B1A7EBAB1D968587EDA751A6990
:102A0000DA6000221A765A7601228DF828208DF895
:102A100030000B915A6819680AA890471EE000BF61
:102A20003C020020002000403B4B9B7E13B901225A
:102A30003A4B5A604FF40172384BC3F80823364BB7
:102A40000022DA75597EDA6801208DF828008DF8A9
:102A500030100B925A6819680AA890472F4BD3F888
:102A60001C31002B31D02C4A938A9BB2927D934229
:102A700014D22A490023C1F81C31D1F81C31069325
:102A8000069B254A9068938A9BB2C05C938A9BB24E
:102A900001339BB29382C1F81C0516E01F4B002244
:102AA000C3F81C21D3F81C310593059B1A4B9B7D61
:102AB0005BB18DF828208DF83030174B99680B9159
:102AC0009A755A6819680AA89047144BD3F844318C
:102AD000FBB1124B0022C3F84421D3F844310493D4
:102AE000049B0D4B9B7E13B101220C4B1A600A4BC9
:102AF000DB7D73B1084B0022DA75597EDA6801205C
:102B00008DF828008DF830100B925A6819680AA8C1
:102B100090470EB010BD00BF3C02002000200040D6
:102B200048DF7047114B1B7813F0FF0F1CD010B516
:102B300082B00024A4B90E4B1B7813F0FF0F11D103
:102B400001A8FFF7EDFF052809D010B1FDF728FD1A
:102B500006E0084B1B681BB10198984700E0012470
:102B6000002CE7D002B010BD704700BF5D0200200E
:102B70005C0200206002002008B5054B1B6823B1F1
:102B8000984720B1FDF70CFD08BDFFF7CBFF08BD4E
:102B9000640200200F4B1B78062B10D10E4B1B68D4
:102BA00013F00F0F0DD10D4B1B6803F0F003302B0A
:102BB00009D0402B09D0502B09D0002070470020AD
:102BC00070470020704701207047012070470120A6
:102BD000704700BFE00F00F0E40F00F0E80F00F0D6
:102BE0000B4B1B78062B0CD10A4B1B6813F00F0FF5
:102BF00009D1094B1B6803F0F003302B05D00020EE
:102C0000704700207047002070470120704700BFC8
:102C1000E00F00F0E40F00F0E80F00F00F4B1B781E
:102C2000062B10D10E4B1B6813F00F0F0DD10D4B5F
:102C30001B6803F0F003302B09D0402B09D0502B38
:102C400009D0002070470020704700207047012005
:102C50007047012070470120704700BFE00F00F06F
:102C6000E40F00F0E80F00F00B4B1B78062B0CD1A3
:102C70000A4B1B6813F00F0F09D1094B1B6803F0B7
:102C8000F003302B05D00020704700207047002053
:102C900070470120704700BFE00F00F0E40F00F024
:102CA000E80F00F00F4B1B78062B10D10E4B1B6862
:102CB00013F00F0F0DD10D4B1B6803F0F003302BF9
:102CC00009D0402B09D0502B09D00020704700209C
:102CD0007047002070470120704701207047012095
:102CE000704700BFE00F00F0E40F00F0E80F00F0C5
:102CF0000B4B1B78062B0CD10A4B1B6813F00F0FE4
:102D000009D1094B1B6803F0F003302B05D00020DC
:102D1000704700207047002070470120704700BFB7
:102D2000E00F00F0E40F00F0E80F00F00B4B1B7811
:102D3000062B0CD10A4B1B6813F00F0F09D1094B5E
:102D40001B6803F0F003302B05D0002070470020F3
:102D50007047002070470120704700BFE00F00F06F
:102D6000E40F00F0E80F00F00B4B1B78062B0CD1A2
:102D70000A4B1B6813F00F0F09D1094B1B6803F0B6
:102D8000F003502B05D00020704700207047002032
:102D900070470120704700BFE00F00F0E40F00F023
:102DA000E80F00F00F4B1B78062B10D10E4B1B6861
:102DB00013F00F0F0DD10D4B1B6803F0F003302BF8
:102DC00009D0402B09D0502B09D00020704700209B
:102DD0007047002070470120704701207047012094
:102DE000704700BFE00F00F0E40F00F0E80F00F0C4
:102DF000014A024B1A6070470090D0030400002083
:102E000008B5FFF7C7FE28B14F4B1B68C3F3042377
:102E10004E4A1360FFF7E4FE10B14D4A4D4B1A6065
:102E2000FFF7FCFE28B14C4B1B68C3F342334B4AFF
:102E30001360FFF719FF20B1494AD36823F080736C
:102E4000D360FFF72FFF40B14FF080430022C3F85B
:102E50000C21C3F81021C3F83825FFF749FF10B142
:102E60000322404B1A60FFF761FF58B105223E4B29
:102E70001A60012278331A600022703B1A603F22E8
:102E8000043B1A60FFF770FF002846D04FF08052D5
:102E9000D2F80414354BC3F82015D2F80814C3F83F
:102EA0002415D2F80C14C3F82815D2F81014C3F85E
:102EB0002C15D2F81414C3F83015D2F81814C3F82E
:102EC0003415D2F81C14C3F84015D2F82014C3F8F6
:102ED0004415D2F82414C3F84815D2F82814C3F8BE
:102EE0004C15D2F82C14C3F85015D2F83014C3F88E
:102EF0005415D2F83414C3F86015D2F83814C3F856
:102F00006415D2F83C14C3F86815D2F84014C3F81D
:102F10006C15D2F84424C3F87025FFF743FF28B19D
:102F2000134B1B6803F04F03124A1360124AD2F886
:102F3000883043F47003C2F88830BFF34F8FBFF37B
:102F40006F8FFFF755FF08BD240300104035014087
:102F50000DF0ADBA74C00740440200103C050040BB
:102F6000F0ED00E0A00500401056004000C0004019
:102F700058020010E40E004000ED00E0704700BF72
:102F8000704700BF054B1B7833B90122034B1A7001
:102F9000034B1860034B1980704700BF7E0A002066
:102FA000680A00207C0A002008B503681B6900211C
:102FB000984708BD704700BF10B50446024B036038
:102FC00000F092FB204610BD7C62000010B5044664
:102FD000044B036000F088FB204602F0DFF8204637
:102FE00010BD00BF7C62000000B587B001238DF8E2
:102FF000003000238DF801301E228DF802201D22A2
:103000008DF803204FF00462019228228DF80820E9
:103010008DF809208DF80A304FF40073ADF80C30AC
:10302000054B049303F58063059304496846FFF755
:1030300047FB07B05DF804FB68020020852F000005
:1030400070B504461D46049E00F05EFB7F4B236076
:1030500000236362C4F87C33C4F88033C4F884333B
:10306000C4F88833012284F88C2384F88D3384F8E3
:103070008E33C4F89033C4F89433C4F89833C4F84A
:103080009C3362723222E260002B0ADC4FF0A042D5
:103090004FF48061C2F80C150321C2F828170133E0
:1030A000F2E76800C4F87C037300C4F8803300EBD7
:1030B0008600C4F88403B0F1FE5F01D8800001E00F
:1030C0004FF0FF3002F07DF8A062D4F88453BA2D9F
:1030D00077D100230C2B1DD800EB830603F10A02E5
:1030E00004EB82025660EA1A02F18042013A00EBD8
:1030F000820203F1320104EB81014A6003F11E01F7
:1031000004EB81014E6003F1460104EB81014A604A
:103110000133DFE70023062B29D803F10D0100EB73
:10312000810103F1170204EB82025160EA1A02F1F5
:1031300080420E3A00EB820203F1530104EB81015D
:103140004A60C3EB83718A0002F5B872024403F14E
:103150002B0104EB81014A6003F15D0100EB810169
:1031600003F13F0204EB820251600133D3E70023F5
:10317000202B26D803F1350100EB810103F17B02FE
:1031800004EB82025160C3EB83718A0002F1D00527
:10319000054403F15A0104EB81014D6003F18505FB
:1031A00000EB850503F1BD0104EB81014D6002F5E3
:1031B0000472024403F19C0104EB81014A60013373
:1031C000D6E7234A234B1A600832234B1A60043A8D
:1031D000224B1A604FF48062214B1A60032001F0E9
:1031E000DFFF0546172318221221FDF701F9E561DB
:1031F00040F2A44001F0D4FF05461322E16900F03B
:103200000FFB2562FFF7F0FE102001F0C9FF054615
:103210000023036043608360C36020B11A46014607
:10322000206A00F0E3FD082001F0BAFF00230370DC
:103230004360C4F888033DB130B14560D4F88823B9
:103240000123137084F88C33204670BD7C6200002B
:10325000040500506C0A0020780A0020740A00203F
:10326000700A002010B40023D0F8842393420AD2BD
:10327000846A04EB8301002204F823204A708A70D8
:10328000CA700133F0E75DF8044B704710B504468F
:103290000020FDF701FED4F88413A06A00F048FA7C
:1032A0000020FDF7FDFD204B1A6832231F4900BFA7
:1032B00000BF00BF00BF00BF00BF00BF00BF8A4209
:1032C0002FD000BF00BF00BF00BF00BF00BF00BFC6
:1032D00000BF00BF00BF00BF00BF00BF00BF00BFF6
:1032E00000BF00BF00BF00BF00BF00BF00BF00BFE6
:1032F00000BF00BF00BF00BF00BF00BF00BF00BFD6
:1033000000BF00BF00BF00BF00BF00BF00BF00BFC5
:1033100000BF00BF00BF00BF00BF00BF00BF00BFB5
:1033200000BF013BC3D110BD040000200024F40005
:10333000F0B4D0F88463B24200D8164600239E420F
:1033400015D9826A9C0022440025D570826A15191D
:1033500003EB43028F5C6F70856A2C440A445578F6
:10336000A570846A927804F823200133E7E7F0BC63
:10337000704700BFF0B40025D0F88443A5420FD2B7
:10338000866AAC0026440027F770866A264471706E
:10339000866A3444A270846A04F825300135EBE76C
:1033A000F0BC704790F88C33002B00F03181D0F8DE
:1033B0008833002B00F02C812DE9F043ADF5C05D82
:1033C00081B005461A78042A00F21D81DFE812F068
:1033D000050025001B013D00E5005C682368A1682D
:1033E000042203EB81010DF5006002F09DFD9DF8C4
:1033F00000389DF802289DF801182846FFF7BAFF0B
:103400002846FFF743FFA3680133A3606268934235
:10341000C0F0F9800023A360F5E05C68E168A26871
:1034200002FB01F101EB410123681944FFF780FF22
:103430002846FFF72BFFE3680133E360626893429D
:10344000C0F0E1800023E360DDE0D3F80480FFF703
:1034500009FF0027D8F804309F4280F09A80D8F8FE
:10346000003007EB8702960099199A598B681A4425
:103470004868CB68034403F00709664CA4FB0204C8
:10348000E40804EB4414141BB9F1070F77D8DFE804
:1034900009F0040430303E3E4C4C0C2C6FD9192CF2
:1034A00015D913F0010F09D104F1110305EB8303C2
:1034B00004221031586802F037FD60E0E31E05EB8E
:1034C000830304221031586802F02EFD57E003F008
:1034D0000103A4F10D02980003449800134603442D
:1034E0000A3305EB830304221031586802F01CFDF7
:1034F00045E003F001035A01134423445A3305EB1A
:10350000830304221031586802F00EFD37E003F007
:1035100001035A01134423449C3305EB8303042223
:103520001031586802F000FD29E0192C16D913F06B
:10353000010F09D104F1390305EB83030422103193
:10354000586802F0F1FC1AE004F1250305EB83034F
:1035500004221031586802F0E7FC10E003F0010388
:10356000A4F10D029800034498001346034432333B
:1035700005EB830304221031586802F0D5FCD8F81B
:1035800000303344C3F80490D8F800309C51013720
:1035900060E72846FFF77AFE35E01F4B1B7893B3B0
:1035A00000231D4A1370B3F5007F1BD25A001B493C
:1035B000096831F9131007EE901AF8EEE77ADFED9B
:1035C000186A87EEA67A0DF5006101EBC30181ED63
:1035D000007A01320DF5006101EB820200211160D9
:1035E0000133E0E7012300220DF500610D4801F0F1
:1035F0002FF94FF4807269460DF5006001F0A2F9D1
:103600002846FFF743FE0DF5C05D01B0BDE8F0832D
:10361000704700BFE1830F3E7E0A0020680A002049
:1036200000FEFF46E062000010B50446284B1A6811
:1036300044F62063274900BF00BF00BF00BF00BFA2
:1036400000BF00BF00BF8A422FD000BF00BF00BF35
:1036500000BF00BF00BF00BF00BF00BF00BF00BF72
:1036600000BF00BF00BF00BF00BF00BF00BF00BF62
:1036700000BF00BF00BF00BF00BF00BF00BF00BF52
:1036800000BF00BF00BF00BF00BF00BF00BF00BF42
:1036900000BF00BF00BF00BF00BF00BF00BF00BF32
:1036A00000BF00BF00BF00BF00BF013BC3D100236C
:1036B0001A461946FFF75EFE2046FFF7E7FDD4F8ED
:1036C00088331B78042B01D1FFF762F810BD00BFCF
:1036D000040000200024F400704700BF704700BFC2
:1036E000704700BF704700BF014B0360704700BFC9
:1036F000A462000010B50446FFF7F6FF204601F073
:103700004DFD204610BD00BF10B504461046074BC6
:103710002360002323726372E36061600A22014622
:1037200004F1100002F000FC204610BDA46200006D
:1037300001B402B404B408B410B420B440B480B4EA
:1037400000B50F1C061C3349334A344B0968126814
:103750001B680124E40535681360C046C046C046B6
:10376000C046C046C046C046C046C046C046C04629
:10377000C046C046C046C046C046C046C046C04619
:10378000C046C046254200D10B60C046C046C04678
:10379000C046C046C046C046C046C046C046C046F9
:1037A000C046C046C046C046C046C046C046C046E9
:1037B000C046C046C0460B60C046C046C046C04674
:1037C000C046C046C046C046C046C046C046C046C9
:1037D000C046C046C046C046C046C046C046C046B9
:1037E000C046C046C046C046C046C046C046C046A9
:1037F0006408002CB0D10436013F002FA9D180BC51
:10380000BE4680BC40BC20BC10BC08BC04BC02BC92
:1038100001BC7047780A0020740A0020700A00205A
:10382000F8B504460E461746082001F0B9FC0546D7
:103830003A463146FCF79EFE25600B4B1C60012288
:103840000A49201DFEF750FA58B904F50D750849CC
:103850002846FEF77FFC20B904F518712846FEF7CC
:10386000B3FC2046F8BD00BF800A0020D4620000EF
:10387000C862000070B582B004460D46164611F0CD
:10388000800F08D001F07F0500227721FFF7F2FFBB
:10389000012800F287808DF80050330E8DF801303A
:1038A000330C8DF80230330A8DF803308DF8046044
:1038B000402D01D0012300E09523482D00D187231E
:1038C0008DF8053023685868FCF7C8FD23681A781E
:1038D000012393404FF0A042C2F80C352368062222
:1038E00069465868FCF7DEFD2368FF215868FCF73D
:1038F000C7FD10F0800F45D02B4B1A6864232B496D
:1039000000BF00BF00BF00BF00BF00BF00BF00BFBF
:103910008A422FD000BF00BF00BF00BF00BF00BF62
:1039200000BF00BF00BF00BF00BF00BF00BF00BF9F
:1039300000BF00BF00BF00BF00BF00BF00BF00BF8F
:1039400000BF00BF00BF00BF00BF00BF00BF00BF7F
:1039500000BF00BF00BF00BF00BF00BF00BF00BF6F
:1039600000BF00BF00BF00BF00BF00BF00BF00BF5F
:1039700000BF00BF013BC3D12368FF215868FCF79B
:103980007FFDB6E7402D0DD0482D0BD07A2D09D004
:10399000512D07D023681A78012393404FF0A0429D
:1039A000C2F8083502B070BD040000200024F40005
:1039B000F0B589B0044603684FF000715868FCF711
:1039C00047FD704E3268704D4FF4FA6300BF00BF80
:1039D00000BF00BF00BF00BF00BF00BFAA422FD082
:1039E00000BF00BF00BF00BF00BF00BF00BF00BFDF
:1039F00000BF00BF00BF00BF00BF00BF00BF00BFCF
:103A000000BF00BF00BF00BF00BF00BF00BF00BFBE
:103A100000BF00BF00BF00BF00BF00BF00BF00BFAE
:103A200000BF00BF00BF00BF00BF00BF00BF00BF9E
:103A300000BF00BF00BF00BF00BF00BF00BF00BF8E
:103A4000013BC3D123681A78012393404FF0A04271
:103A5000C2F808352368142203A95868FCF76EFDE4
:103A600032684A4B00BF00BF00BF00BF00BF00BFAD
:103A700000BF00BFAA422FD000BF00BF00BF00BFE1
:103A800000BF00BF00BF00BF00BF00BF00BF00BF3E
:103A900000BF00BF00BF00BF00BF00BF00BF00BF2E
:103AA00000BF00BF00BF00BF00BF00BF00BF00BF1E
:103AB00000BF00BF00BF00BF00BF00BF00BF00BF0E
:103AC00000BF00BF00BF00BF00BF00BF00BF00BFFE
:103AD00000BF00BF00BF00BF013BC3D10022402197
:103AE0002046FFF7C7FE0128F8D126490868264A74
:103AF000274B00BF00BF00BF00BF00BF00BF00BF1B
:103B000000BF90422FD000BF00BF00BF00BF00BF6A
:103B100000BF00BF00BF00BF00BF00BF00BF00BFAD
:103B200000BF00BF00BF00BF00BF00BF00BF00BF9D
:103B300000BF00BF00BF00BF00BF00BF00BF00BF8D
:103B400000BF00BF00BF00BF00BF00BF00BF00BF7D
:103B500000BF00BF00BF00BF00BF00BF00BF00BF6D
:103B600000BF00BF00BF013BC3D123681B78012504
:103B700005FA03F34FF0A046C6F8083509684FF47C
:103B8000FA6307E0040000200024F40020A10700ED
:103B9000A086010000BF00BF00BF00BF00BF00BF84
:103BA00000BF00BF91422FD000BF00BF00BF00BFC9
:103BB00000BF00BF00BF00BF00BF00BF00BF00BF0D
:103BC00000BF00BF00BF00BF00BF00BF00BF00BFFD
:103BD00000BF00BF00BF00BF00BF00BF00BF00BFED
:103BE00000BF00BF00BF00BF00BF00BF00BF00BFDD
:103BF00000BF00BF00BF00BF00BF00BF00BF00BFCD
:103C000000BF00BF00BF00BF013BC3D14FF4D5725E
:103C100048212046FFF72EFE07462368042202A90A
:103C20005868FCF76FFC23681B789D40C6F8085560
:103C3000012F40F087809DF80A3003F00F03012B1D
:103C400040F081809DF80B30AA2B7CD100227A2194
:103C50002046FFF70FFE236804220DEB020158688F
:103C6000FCF750FC23681A7801239340C6F8083506
:103C70009DF80530FF2B66D19DF80630802B62D170
:103C800000254FF08042E9212046FFF7F3FD2F4B3E
:103C90001A684CF250332E4900BF00BF00BF00BF6E
:103CA00000BF00BF00BF00BF8A422FD000BF00BFCF
:103CB00000BF00BF00BF00BF00BF00BF00BF00BF0C
:103CC00000BF00BF00BF00BF00BF00BF00BF00BFFC
:103CD00000BF00BF00BF00BF00BF00BF00BF00BFEC
:103CE00000BF00BF00BF00BF00BF00BF00BF00BFDC
:103CF00000BF00BF00BF00BF00BF00BF00BF00BFCC
:103D000000BF00BF00BF00BF00BF00BF013BC3D169
:103D1000013508B1132DB4DDA8B900227A2120465F
:103D2000FFF7A8FD236804220DEB02015868FCF799
:103D3000E9FB23681A78012393404FF0A042C2F8B0
:103D4000083500E0FEE7002009B0F0BD04000020C7
:103D50000024F40030B583B004460D465121FFF72E
:103D600089FD30BB236801220DF103015868FCF77F
:103D7000E5FB9DF80330FE2BF4D123684FF400726D
:103D800029465868FCF7DAFB02252A460A4901A8A9
:103D900002F0CAF823682A4601A95868FCF782FB9A
:103DA00023681A78012393404FF0A042C2F80835E7
:103DB00000E0012003B030BDC46200002DE9F041F5
:103DC00080460D4617461E460024B44209DAE21921
:103DD00029464046FFF7BEFF05F5007520B90134BE
:103DE000F3E70020BDE8F081BDE8F081F0B591B0C7
:103DF00004460E4600F51E7501222D492846FDF7A2
:103E00009FFF002851D10FAB0E220BA92846FEF7C9
:103E100087F80FAB04220DEB02012846FEF780F86D
:103E20000FAB019A043A02A92846FEF779F8D4F8B4
:103E3000A00410B908B101F0AFF9069801F0C1F97A
:103E40000146C4F8A0040FAB069A2846FEF768F8AE
:103E50000020039B98421DDA0021029B994217DA49
:103E6000D4F8A02403FB001303EB430302EB030E7F
:103E7000D75C9EF802E002F803E0D4F8A024029B8D
:103E800003FB001303EB43030233D7540131E4E790
:103E90000130DEE70022F2607360029BB360D4F869
:103EA000A03433602846FEF743F911B0F0BD00BFDF
:103EB000CC620000014B1868704700BF800A0020E8
:103EC00008B5FFF775FD08BD08B5FFF777FF08BD1A
:103ED000024B1B6801221A72704700BF840A00203F
:103EE00008B5FEF7DBF908B1FCF75AFB0020FEF736
:103EF000F7F908BD264B1B68002B46D110B54020B2
:103F000001F04EF9012303704370002484704FF4D4
:103F10007A714160A022028142818481C824C481D7
:103F20000282F0244482402484824FF4A074C4822C
:103F30004FF4026404830824448382838022C28372
:103F4000052202840A224284818442F21071C184D3
:103F50004FF4FA6101854185828580F82E3080F822
:103F60002F3080F83030438680F83430022380F8D8
:103F70003530032380F836300D2383632823C36351
:103F8000034B1860024B186810BD014B186870474E
:103F90008C0A002008B5284B1868FCF7B5F9274BA8
:103FA0001A68274B274900BF00BF00BF00BF00BFF2
:103FB00000BF00BF00BF8A422FD000BF00BF00BFBC
:103FC00000BF00BF00BF00BF00BF00BF00BF00BFF9
:103FD00000BF00BF00BF00BF00BF00BF00BF00BFE9
:103FE00000BF00BF00BF00BF00BF00BF00BF00BFD9
:103FF00000BF00BF00BF00BF00BF00BF00BF00BFC9
:1040000000BF00BF00BF00BF00BF00BF00BF00BFB8
:1040100000BF00BF00BF00BF00BF013BC3D1BFF363
:104020004F8F0949CA6802F4E062084B1343CB6022
:10403000BFF34F8F00BFFDE7B00A0020040000204F
:10404000404B4C000024F40000ED00E00400FA05B1
:1040500008B5FCF7ABFE08B1FCF7A2FA0548064B21
:104060000360064A0121FCF7D1FE08B1FCF798FA7B
:1040700008BD00BF880A0020900A0020D13E000041
:1040800038B50346002849D1304B1B68002B42D17C
:10409000402001F085F801230370437000248470F0
:1040A0004FF47A714160A022028142818481C82448
:1040B000C4810282F0244482402484824FF4A0749C
:1040C000C4824FF4026404830824448382838022E0
:1040D000C283052202840A224284818442F2107142
:1040E000C1844FF4FA6101854185828580F82E30C4
:1040F00080F82F3080F83030438680F83430022347
:1041000080F83530032380F836300D23836328236D
:10411000C3630E4B18600D4B1B685B680C4A156837
:104120000024590CD8034FF47A72002310F5FA706A
:1041300041F1000101F014FD224601462846FCF73A
:104140007BFE08B1FCF72CFA38BD00BF8C0A0020BA
:10415000880A0020F0B583B00C2001F021F8054654
:1041600000221F21FCF7B4F81E4C25602846FCF7FE
:10417000DBF82068FCF7D8F8FFF7BCFE856BFFF78B
:10418000B9FEC76B4FF4687001F00AF80646009755
:104190002B46154A2168FEF753FF144D2E603368F5
:1041A0005B6930469847FFF79BFEFFF751FFC82138
:1041B0002068FCF7C5F8286803685B6998472B6896
:1041C0005A7A12B1D868FFF75BFF084B1868037A78
:1041D00033B103689B699847044B1B6800221A722D
:1041E00030BFF2E7B00A0020D8620000840A002045
:1041F0002DE9F0412DED088BB0F800E042684FEA60
:104200005E0C01EB8E085FEADE0E07464FEA8C0378
:1042100000F0AF801033CE181032434401F1100586
:1042200008F1100454ED041A13ED044A53ED033A57
:1042300053ED025A13ED015A54ED036A14ED020ACC
:1042400016ED042A56ED032A15ED036A15ED017AE1
:1042500015ED043A54ED017A56ED020A16ED011AF5
:1042600055ED024A73EE21BA36EE26BA37EE27AA8A
:1042700072EE049A32EEA39A31EE058A74EE80AAA9
:1042800070EEA58A45ED04BA05ED03BA45ED02AA24
:1042900005ED01AA06ED018A46ED049A06ED039AA2
:1042A00046ED028A76EE666A73EEE23A12ED036A32
:1042B00052ED042A33EE613A34EE424A26EE868A03
:1042C00024EE062A63EE221A24EE224A23EE063A50
:1042D00066EEA26A23EE866A63EEA23A36EE046ABE
:1042E00076EEC36A72EE633A71EE882A44ED036A91
:1042F00044ED042A43ED043A03ED036A77EE677A4E
:1043000075EEE06A12ED017A52ED025A35EE416A1D
:1043100074EEC04A67EE873A26EE875A24EEA54A25
:1043200067EEA57A64EE874A66EEA56A26EE077AFE
:1043300026EE256A77EEE47A74EE235A35EE466A65
:1043400037EE267ABEF1010E44ED025A05F1100552
:1043500044ED017A06F1100603ED026A03ED017ADD
:1043600002F1100204F1100403F110037FF45AAFBC
:104370007A681FFA8CF408460223214600F02AFCD2
:10438000BDEC088B404621467A680223BDE8F04127
:1043900000F020BC2DE9F04F2DED0A8B028891ED45
:1043A000006A8FB00F46520893000C900391416849
:1043B00097ED017A38461844064609901844D0ED26
:1043C000006AD6ED003AD6ED012AD0ED017A0A90C6
:1043D00076EE265A044625461C4494ED004A94ED98
:1043E000015A019475EEA34A304674EE244A3E46C3
:1043F00014EE90EA76EE666A46F808EB37EE276A26
:10440000D0ED014A049677EE677A019E32EEA63A25
:1044100096ED012A36EE247A75EEE35A77EEE34AFA
:1044200036EE626A77EEA37A76EEE26A73EE453A8A
:10443000044636EE456A75EE266AA34637EE027AE2
:1044400034EE845A13EE908AA44675EEC45A87ED72
:10445000017A4BF8088BACF104078CED015A01F19D
:10446000080C2C46CDF814C015EE90CA44F808CBC1
:10447000079401F1100485ED016A520802942C465C
:1044800001F118050B92B246069577EEC47A023A0E
:1044900016EE905AB646304652084AF8085BA0F12C
:1044A0000406CEED017A089200F030819146039A1D
:1044B000DDF80880CDF834A0083B02F1100501F1C9
:1044C000200CA4F10C0201F1300E3344103450469C
:1044D000594655ED023A14ED025A91ED007AD0EDAD
:1044E000007A15ED014A54ED015AD0ED016A91EDC3
:1044F000016A33EE858A34EE250A78EE074A74EEB7
:10450000655A77EEA44A33EEC55A45ED024AD1ED1D
:10451000014A90ED014A70EE244A76EE05AA74EE47
:10452000844A35EEC7AA45ED014AD6ED001AD7ED0B
:10453000000A92ED024AD3ED023A93ED012A16EDFC
:10454000011AD2ED012A57ED019A70EEA14A39EE17
:10455000813A74EE848A70EEE11A73EEA88A7AEEDC
:10456000E6AA18EE90AA47F808A9D2ED018A93EDC1
:10457000019A73EE288A3AEE27AA78EE898A74EEB9
:10458000630AC7ED018A18ED02BA58ED018A39EEC7
:10459000C11A6AEE28BA2AEE8BCA71EEE29A30EEA0
:1045A000819A79EE829A3CEE2BCA6AEEA8AA69EE4D
:1045B000A8BA2AEE0BAA69EE8B9A69EE288A29EE30
:1045C0000BBA1CEE10AA78EEA98A41F808AB3AEEB5
:1045D0006AAA3BEECBBA34EEC44A33EE623A01ED3E
:1045E00001AAC2ED018A82ED02BA5CED044A74EEC2
:1045F000633A38EE478A1CED034A30EE460A33EE42
:10460000423A38EE678A30EE660A23EEE49A63EEA9
:10461000048A28EE24AA60EE049A28EE048A20EE8A
:10462000240A63EE843A39EE684A7AEE299A14EE47
:1046300010AA30EE480A63EE244A44ED029A73EE63
:10464000E43A04ED010A46F808A935EE466A35EE6B
:10465000877AC6ED013A76EE866A77EE677A1EEDC6
:10466000056A1EED067A67EE865A26EE875A72EEC6
:10467000622A30EEC11A72EEE12A75EE255A62EE18
:10468000860A66EE866A67EE877A21EE066A62EE31
:10469000872A21EE071A15EE90AA77EEE67A40F8FF
:1046A00008AB30EEC11A76EE222AB9F1010940EDCD
:1046B000017A05F1080583ED021AC3ED012A08F11C
:1046C0000808A2F108020CF1100C04F108040EF124
:1046D000180EA3F108037FF4FCAE08990298DDF8E8
:1046E00034A0CB0001EB410200EB011102910499CF
:1046F0001944049105991944059107999B4419445B
:104700009A44069B079103EBC2030693049A079809
:10471000D2ED003A90ED004ADBED007A9AED003AD6
:10472000D2ED014A90ED017A9BED012ADAED015AB2
:10473000BDF82C400C9E73EE846A34EE876A36EE28
:10474000A75A34EEC77A33EE055A33EEC44A82EDE7
:10475000005A9BED015ADAED014A36EE055A72EE27
:10476000043A35EE245A77EE674A82ED015A059AEB
:1047700034EE835AD2ED001AD2ED012A029A73EE7A
:10478000E53A36EE426A63EEA14A63EEA23A65EE7E
:10479000222A25EE215A74EEA22A35EE635A76EECD
:1047A000E76ACBED002A8BED015AD2ED013A92ED8A
:1047B000005A069A76EEC36A36EE656A66EE854A58
:1047C00026EE055A66EEA36A26EE236A75EE666A41
:1047D00034EE866A34EE424A37EE277AC0ED016A3B
:1047E00080ED006A92ED016A039877EE437A75EEE8
:1047F000845A92ED007A65EE876A27EE877A65EE35
:10480000865A67EE867A77EE655A76EEA77ACAED13
:10481000015ACAED007A72682146042300F0DAF9E1
:10482000099872682146042300F0D4F90A98726846
:104830002146042300F0CEF9019872682146042332
:104840000FB0BDEC0A8BBDE8F04F00F0C3B900BF5C
:104850002DE9F041012A064617460C469846058880
:1048600054D0B5F5807F4CD016D9B5F5806F1AD0ED
:104870005CD9B5F5006F44D0B5F5805F05D1204611
:1048800029467268012300F0A5F9B8F1000F11D193
:10489000012F16D0BDE8F081202D32D04AD9402D0D
:1048A000EDD0802DF1D130462146FFF7A1FCB8F1C3
:1048B000000FEDD02046B189B26800F02BF9012F2E
:1048C000E8D107EE905AF8EE676AF7EE007AC7EE85
:1048D000A66A002DDED004F10801002301339D42B9
:1048E00001F1080111ED047A51ED037A27EE267AE1
:1048F00067EEE67A01ED047A41ED037AEED1BDE888
:10490000F08130462146FFF745FDBEE7ADB101F12C
:104910000C03002253ED027A0132F1EE677A9542E0
:1049200043ED027A03F10803F4D19AE7B5F5007F6D
:10493000A5D0AAE7102DB6D0A7E7B5F5807F94D80B
:10494000AAE700BF2DE9F0415FEA920884B07FD06A
:10495000002700F1200401F1100546465AE0B1EEAF
:10496000E70AB4EE400AF1EE10FA40F0A48005ED3B
:10497000040A54ED067A14ED050A67EEA77A20EED4
:10498000000A77EE807AF5EEC07AF1EE10FAC0F206
:104990008F80B1EEE70AB4EE400AF1EE10FA40F073
:1049A000AF8005ED030A54ED047A14ED030A67EEB7
:1049B000A77A20EE000A77EE807AF5EEC07AF1EE63
:1049C00010FA72DBB1EEE70AB4EE400AF1EE10FA2B
:1049D00040F08C8005ED020A54ED027A14ED010AD4
:1049E00067EEA77A20EE000A77EE807AF5EEC07ABD
:1049F000F1EE10FA20DBB1EEE70AB4EE400AF1EE78
:104A000010FA69D1013E05ED010A04F1200405F117
:104A1000100519D054ED087A14ED070A67EEA77A4D
:104A200020EE000A77EE807AF5EEC07AF1EE10FA09
:104A300095DA45F8107C9CE7013E45F8047C04F1CA
:104A4000200405F11005E5D100EB481001EB081139
:104A500012F0030526D0002600F108040CE0B1EEA8
:104A6000E70AB4EE400AF1EE10FA2ED1013D01ED55
:104A7000010A04F1080415D054ED027A14ED010A7C
:104A800067EEA77A20EE000A043177EE807AF5EE21
:104A9000C07AF1EE10FAE2DA013D41F8046C04F15B
:104AA0000804E9D104B0BDE8F08145F8087C93E73B
:104AB00045F80C7C77E7B0EE670A0392029101900B
:104AC00000F08AFB01A807C851E7B0EE670A019120
:104AD00000F082FB0199C9E7B0EE670A03920291E8
:104AE000019000F079FB01A807C88BE7B0EE670AD8
:104AF00003920291019000F06FFB01A807C869E7DB
:104B0000B0EE670A03920291019000F065FB01A8E4
:104B100007C846E74B1C012B98BF70472DE9F003EF
:104B2000911C9B08B1F80480B1F802900A8831F812
:104B300002CC8044814402448444D9F80070D8F8FF
:104B400000601568DCF80040C9F80060C8F8007023
:104B5000CCF800501460D9F80470D8F80460556897
:104B6000DCF80440C9F80460C8F80470CCF80450BC
:104B700054600831013BD5D1BDE8F00370474B1CB0
:104B8000012B98BF70472DE9F003911C9B08B1F8E9
:104B90000480B1F802900A8831F802CC00EB580882
:104BA00000EB590900EB520200EB5C0CD9F80070E5
:104BB000D8F800601568DCF80040C9F80060C8F853
:104BC0000070CCF8005014600831013BDFD1BDE823
:104BD000F00370472DE9F04F2DED108B9DB01C4672
:104BE0009FEDC8BA1A92031D824689468B461B93D5
:104BF00000949E464FEADB035A00D618F51803923C
:104C00005A19D018DF0019183C46019757440C93E5
:104C10000AEBC2021B010AEBC10107EB040C009C6A
:104C200002930AEBC6060AEBC505043204310AEB0F
:104C3000C0004FEACB034FF00008DCED007AD7ED5F
:104C4000006AD6ED003A5EED01AAD5ED004A90ED7E
:104C5000002A12ED017A51ED010A77EE828A33EED5
:104C6000A04A76EE871A3AEEA43A31EE846A33EE21
:104C7000285A36EEC77A75EE066A35EE465A4EED7C
:104C8000016A85ED005A96ED011AD7ED015A92EDB1
:104C900000AA91ED006A9EED009A95ED015ADCEDB7
:104CA000016AD0ED019A73EEE00A71EE462A75EEC4
:104CB000CA3A37EE600A33EEA28A37EE207A73EEF4
:104CC000E22A37EEC22A79EE053A60EE0B0A39EE97
:104CD000455A7AEEE44A36EEA99A75EE8A5A31EED2
:104CE000066A76EEE96A28EE0B8A62EE8B2A67EE98
:104CF0000B7A33EE683A36EE880A75EE868A36EE1F
:104D0000C87A71EEC41A75EE626A33EEC94A35EE9E
:104D1000C66A33EE891A74EEE05A74EEA03A75EE64
:104D2000224A32EE275A72EE677A33EE068A75EE21
:104D3000872A31EE289A33EE466A74EE610A33EE22
:104D4000802A35EEC77A34EEC53A76EEE75A31EE70
:104D5000681A34EE214A73EEC03A74EE854A76EE54
:104D6000A76AD844C1458EED009A85ED011A9E448C
:104D70008CED008A1D4480ED006ACCED010A80EDC7
:104D8000014A9C4487ED002A184441ED013A42ED66
:104D9000012A86ED007A87ED013AC1ED004A1F44F1
:104DA000C2ED005A1944C6ED016A1A441E443FF68A
:104DB00044AF0C990729204640F2E98104EB4407EF
:104DC0003E193519039C00902246013202EB810204
:104DD0000099281800EB010E0C990A4404EB010C11
:104DE0004FEACE040AEBC20E009A0F94ED00119523
:104DF000D5000D95019D08351695029D08351401C5
:104E000017950F9A1A9D0E94C0001090AA18079239
:104E1000109A0C9CAA180892119AAA18099201EBF0
:104E200081010EF104020A92C9000D9A0C31F600BC
:104E30004FEACC001491A9180E9A1296FF00AE19F1
:104E400008304FEA0C1C06961990AA186401EE1956
:104E50000CF10C001397049615900391059204F140
:104E6000080218924FF00108002202F108010F46D3
:104E70000B9118998E1816998D1817998C181999E5
:104E80008818149901EB020C15990A440399D1ED85
:104E900000FA059991ED00FA0499D1ED00EA06991E
:104EA00091ED00EA0999D1ED00DA089991ED00DA67
:104EB0000799D1ED00CA039991ED01CA0599D1ED89
:104EC00001BA0499D1ED01AA069991ED01AA0999B7
:104ED000D1ED017A0899CDED007AD1ED017A0799EB
:104EE000CDED017AD1ED017A0AEB070E0A9FCDEDE7
:104EF000027A0CEB0A01564455445444504452443F
:104F0000C44601E0F304353F96ED005A52ED019A94
:104F100011ED016AD0ED007A17ED017ADEED003A6D
:104F200094ED003A95ED002A9EED010A33EE858A54
:104F300032EE061A33EE294A77EE874A78EE041AE3
:104F400071EE246A32EE462A31EEA66A77EEC77A0F
:104F50008EED006AD0ED018A95ED019AD1ED002A1F
:104F600097ED007AD4ED010A96ED016AD2ED005A70
:104F700073EEC53A33EE693A39EE625A78EEC79A63
:104F800038EE444A38EE877A30EEA58A79EE222A46
:104F900075EE698A32EE279A35EE295A72EE677AF3
:104FA00030EE062A69EE0B9A70EEE55A32EE089A58
:104FB00068EE8B8A32EE482A71EE644A25EE0B5A6F
:104FC00032EE871A67EE8B7A72EEC72A30EE466AA7
:104FD00073EE290A36EE280A33EE693A32EE647A25
:104FE00073EEA79A36EE686A73EEE77A75EE858AF5
:104FF00074EE223A35EEC55A71EEE66A79EE411A40
:1050000039EEA88A76EE435A74EE622A72EE244A8A
:1050100030EE604A79EEE88A30EE200A77EE859A23
:1050200036EE036A77EEC57A2EEE212A2EEE265A48
:105030006FEE230A2AEE213A39EE011A6AEE266A49
:105040002BEE879A6BEEA33A2FEE077A6FEE841A57
:1050500035EE033A72EE666A2CEE045A2FEE882A79
:105060009DED024A8EED011A77EE633A2CEE088A26
:105070009DED017A86ED003A30EE899A32EE052AEE
:105080006DEE220A31EEC88A67EE222A64EE001A1B
:1050900027EE247A2CEEA85A6DEE244A64EE288A74
:1050A0009DED004AC6ED016A74EEE22A6DEEA94A52
:1050B00064EE299A24EE254A30EE877A74EE844A0B
:1050C0006EEEA70A2AEE864A2CEE800A6DEEA55AED
:1050D0006AEEA77A2EEE866A75EE211A30EE680A1D
:1050E00075EEE99A70EE840A36EE676ADC44E145B3
:1050F00084ED009AC4ED013A9E4402ED017AC2EDBE
:10510000002A1E4485ED002A85ED018A1C4447EDE6
:10511000011A87ED000A1A4441ED014AC1ED009AD7
:105120001D44C0ED000A1F4480ED016A1944184473
:105130003FF6EAAE039A0D990A4403920E99059A36
:105140000A4405921399049A0A4404921299069A01
:105150000A4406921199099A0A4409921099089AE8
:105160000A4408920F99079A0A4407920C990A9ADE
:1051700008F10108083288450A920B9A7FF475AE4F
:10518000BDF834300093C346DDF86CE032E51DB065
:10519000BDEC108BBDE8F08F00F000B800F0BCBE95
:1051A00010B5002814BF04460124204600F0ACFED0
:1051B00030B900F009F808B900F05EFE8047F4E766
:1051C00010BDFFF7EDBF0000024B1868BFF35F8F03
:1051D000704700BFB40A002010B52DED028B8AB0D5
:1051E000B0EE408A00F04EF8244B93F90040631C67
:1051F00009D0B4EE488AF1EE10FA04D6B5EEC08AB2
:10520000F1EE10FA03D40AB0BDEC028B10BD0123FD
:105210001B4A009318EE100A00230192089300F035
:10522000E9F90022CDE90401CDE902010023BCB176
:105230001046194600F05CFB022CCDE9060111D1A5
:1052400000F022FE21230360089B8BB9DDE90601F3
:1052500000F036FC00EE100A0AB0BDEC028B10BD67
:10526000CDE90623684600F05FF80028ECD1E7E7B7
:1052700000F00AFE089B0360E8E700BF080000207A
:10528000606E000010EE103A23F00042B2F1FF4FC2
:1052900070B430D26AB3002B3DDBB2F5000F4FEA99
:1052A000E3502CD3A0F17F02C3F31603D10743F4DC
:1052B000000348BF5B00002456105B0025461921FF
:1052C0004FF08072A818984202DC1B1A851814440B
:1052D00001394FEA43034FEA5202F3D113B104F00C
:1052E00001031C44641004F17C5404EBC65300EE2B
:1052F000103A70BC7047A0EE000A70BC704713F4FF
:10530000000201D00CE00A465B001C0202F1010120
:10531000F9D5801AC6E770EE407A87EEA70AE8E76B
:105320004FF0FF32F5E700BF0020704781F00041E9
:1053300002E000BF83F0004330B54FEA41044FEA7A
:10534000430594EA050F08BF90EA020F1FBF54EA15
:10535000000C55EA020C7FEA645C7FEA655C00F0B1
:10536000E2804FEA5454D4EB5555B8BF6D420CDD82
:105370002C4480EA020281EA030382EA000083EA05
:10538000010180EA020281EA0303362D88BF30BDA5
:1053900011F0004F4FEA01314FF4801C4CEA1131FB
:1053A00002D0404261EB410113F0004F4FEA03335A
:1053B0004CEA133302D0524263EB430394EA050FE5
:1053C00000F0A780A4F10104D5F1200E0DDB02FA54
:1053D0000EFC22FA05F2801841F1000103FA0EF2E8
:1053E000801843FA05F359410EE0A5F120050EF1AE
:1053F000200E012A03FA0EFC28BF4CF0020C43FADF
:1054000005F3C01851EBE37101F0004507D54FF0EB
:10541000000EDCF1000C7EEB00006EEB0101B1F53B
:10542000801F1BD3B1F5001F0CD349085FEA300081
:105430004FEA3C0C04F101044FEA445212F5800F8C
:1054400080F09A80BCF1004F08BF5FEA500C50F129
:10545000000041EB045141EA050130BD5FEA4C0C0C
:10546000404141EB010111F4801FA4F10104E9D195
:1054700091F0000F04BF01460020B1FA81F308BF8C
:105480002033A3F10B03B3F120020CDA0C3208DD58
:1054900002F1140CC2F10C0201FA0CF021FA02F133
:1054A0000CE002F11402D8BFC2F1200C01FA02F1A3
:1054B00020FA0CFCDCBF41EA0C019040E41AA2BFC8
:1054C00001EB0451294330BD6FEA04041F3C1CDA90
:1054D0000C340EDC04F11404C4F1200220FA04F0B0
:1054E00001FA02F340EA030021FA04F345EA03015A
:1054F00030BDC4F10C04C4F1200220FA02F001FA1C
:1055000004F340EA0300294630BD21FA04F029469D
:1055100030BD94F0000F83F4801306BF81F4801136
:105520000134013D4EE77FEA645C18BF7FEA655CA9
:1055300029D094EA050F08BF90EA020F05D054EA7B
:10554000000C04BF1946104630BD91EA030F1EBF80
:105550000021002030BD5FEA545C05D14000494184
:1055600028BF41F0004130BD14F580043CBF01F577
:10557000801130BD01F0004545F0FE4141F470015D
:105580004FF0000030BD7FEA645C1ABF1946104638
:105590007FEA655C1CBF0B46024650EA013406BF39
:1055A00052EA033591EA030F41F4002130BD00BFF8
:1055B00090F0000F04BF0021704730B54FF48064B5
:1055C00004F132044FF000054FF0000150E700BF36
:1055D00090F0000F04BF0021704730B54FF4806495
:1055E00004F1320410F0004548BF40424FF0000182
:1055F0003EE700BF42004FEAE2014FEA31014FEAC5
:1056000002701FBF12F07F4393F07F4F81F0605113
:10561000704792F0000F14BF93F07F4F704730B582
:105620004FF4607401F0004521F0004120E700BF15
:1056300050EA010208BF704730B54FF000050AE09C
:1056400050EA010208BF704730B511F0004502D59D
:10565000404261EB41014FF4806404F132045FEA9F
:10566000915C3FF4DCAE4FF003025FEADC0C18BF44
:1056700003325FEADC0C18BF033202EBDC02C2F13A
:10568000200300FA03FC20FA02F001FA03FE40EACC
:105690000E0021FA02F11444C1E600BF70B54FF0CC
:1056A000FF0C4CF4E06C1CEA11541DBF1CEA1355AE
:1056B00094EA0C0F95EA0C0F00F0DEF82C4481EA16
:1056C000030621EA4C5123EA4C5350EA013518BF36
:1056D00052EA033541F4801143F4801338D0A0FB23
:1056E00002CE4FF00005E1FB02E506F00042E0FBD0
:1056F00003E54FF00006E1FB03569CF0000F18BFD6
:105700004EF0010EA4F1FF04B6F5007F64F540747D
:1057100004D25FEA4E0E6D4146EB060642EAC62110
:1057200041EA55514FEAC52040EA5E504FEACE2E7D
:10573000B4F1FD0C88BFBCF5E06F1ED8BEF1004F80
:1057400008BF5FEA500E50F1000041EB045170BDFC
:1057500006F0004646EA010140EA020081EA030140
:10576000B4EB5C04C2BFD4EB0C0541EA045170BD3C
:1057700041F480114FF0000E013C00F3AB8014F1B6
:10578000360FDEBF002001F0004170BDC4F10004FF
:10579000203C35DA0C341BDC04F11404C4F1200580
:1057A00000FA05F320FA04F001FA05F240EA0200DB
:1057B00001F0004221F0004110EBD37021FA04F611
:1057C00042EB06015EEA430E08BF20EAD37070BDCB
:1057D000C4F10C04C4F1200500FA04F320FA05F02A
:1057E00001FA04F240EA020001F0004110EBD3702C
:1057F00041F100015EEA430E08BF20EAD37070BD9C
:10580000C4F1200500FA05F24EEA020E20FA04F374
:1058100001FA05F243EA020321FA04F001F0004123
:1058200021FA04F220EA020000EBD3705EEA430E94
:1058300008BF20EAD37070BD94F0000F0FD101F0C3
:105840000046400041EB010111F4801F08BF013CFC
:10585000F7D041EA060195F0000F18BF704703F03A
:105860000046520043EB030313F4801F08BF013DC1
:10587000F7D043EA0603704794EA0C0F0CEA13557D
:1058800018BF95EA0C0F0CD050EA410618BF52EA37
:105890004306D1D181EA030101F000414FF000003D
:1058A00070BD50EA410606BF1046194652EA43064B
:1058B00019D094EA0C0F02D150EA013613D195EABF
:1058C0000C0F05D152EA03361CBF104619460AD107
:1058D00081EA030101F0004141F0FE4141F4700111
:1058E0004FF0000070BD41F0FE4141F4780170BD01
:1058F00070B54FF0FF0C4CF4E06C1CEA11541DBF66
:105900001CEA135594EA0C0F95EA0C0F00F0A7F867
:10591000A4EB050481EA030E52EA03354FEA013194
:1059200000F088804FEA03334FF0805545EA1313A7
:1059300043EA12634FEA022245EA111545EA10656F
:105940004FEA00260EF000419D4208BF964244F106
:10595000FD0404F5407402D25B084FEA3202B61A25
:1059600065EB03055B084FEA32024FF480104FF4F9
:10597000002CB6EB020E75EB030E22BFB61A75466D
:1059800040EA0C005B084FEA3202B6EB020E75EB00
:10599000030E22BFB61A754640EA5C005B084FEA68
:1059A0003202B6EB020E75EB030E22BFB61A754635
:1059B00040EA9C005B084FEA3202B6EB020E75EB40
:1059C000030E22BFB61A754640EADC0055EA060E01
:1059D00018D04FEA051545EA16754FEA06164FEA44
:1059E000C30343EA52734FEAC2025FEA1C1CC0D1F0
:1059F00011F4801F0BD141EA00014FF000004FF07D
:105A0000004CB6E711F4801F04BF01430020B4F13D
:105A1000FD0C88BFBCF5E06F3FF6AFAEB5EB030CF5
:105A200004BFB6EB020C5FEA500C50F1000041EBF2
:105A3000045170BD0EF0004E4EEA113114EB5C04BF
:105A4000C2BFD4EB0C0541EA045170BD41F4801192
:105A50004FF0000E013C90E645EA060E8DE60CEA9A
:105A6000135594EA0C0F08BF95EA0C0F3FF43BAFB7
:105A700094EA0C0F0AD150EA01347FF434AF95EA6E
:105A80000C0F7FF425AF104619462CE795EA0C0F52
:105A900006D152EA03353FF4FDAE1046194622E71F
:105AA00050EA410618BF52EA43067FF4C5AE50EAF9
:105AB00041047FF40DAF52EA43057FF4EBAE12E7E9
:105AC0004FEA4102B2F1E04324BFB3F5001CDCF120
:105AD000FE5C0DD901F0004C4FEAC0024CEA507058
